{
  "contractName": "Distributor",
  "abi": [
    {
      "inputs": [],
      "payable": false,
      "stateMutability": "nonpayable",
      "type": "constructor"
    },
    {
      "anonymous": false,
      "inputs": [
        {
          "indexed": true,
          "name": "_account",
          "type": "address"
        }
      ],
      "name": "DistributorAdded",
      "type": "event"
    },
    {
      "anonymous": false,
      "inputs": [
        {
          "indexed": true,
          "name": "_account",
          "type": "address"
        }
      ],
      "name": "DistributorRemoved",
      "type": "event"
    },
    {
      "constant": true,
      "inputs": [
        {
          "name": "_account",
          "type": "address"
        }
      ],
      "name": "isDistributor",
      "outputs": [
        {
          "name": "",
          "type": "bool"
        }
      ],
      "payable": false,
      "stateMutability": "view",
      "type": "function"
    },
    {
      "constant": false,
      "inputs": [
        {
          "name": "_account",
          "type": "address"
        }
      ],
      "name": "addDistributor",
      "outputs": [],
      "payable": false,
      "stateMutability": "nonpayable",
      "type": "function"
    },
    {
      "constant": false,
      "inputs": [],
      "name": "removeDistributor",
      "outputs": [],
      "payable": false,
      "stateMutability": "nonpayable",
      "type": "function"
    }
  ],
  "bytecode": "0x608060405234801561001057600080fd5b5061003233600061007a640100000000026101f5179091906401000000009004565b3373ffffffffffffffffffffffffffffffffffffffff167fddbf200aa634dc3fb81cfd68583dd1040d1c751d335e1d86b631bde3e977fea860405160405180910390a26101cd565b600073ffffffffffffffffffffffffffffffffffffffff168173ffffffffffffffffffffffffffffffffffffffff16141515156100b657600080fd5b6100cf8282610139640100000000026401000000009004565b1515156100db57600080fd5b60018260000160008373ffffffffffffffffffffffffffffffffffffffff1673ffffffffffffffffffffffffffffffffffffffff16815260200190815260200160002060006101000a81548160ff0219169083151502179055505050565b60008073ffffffffffffffffffffffffffffffffffffffff168273ffffffffffffffffffffffffffffffffffffffff161415151561017657600080fd5b8260000160008373ffffffffffffffffffffffffffffffffffffffff1673ffffffffffffffffffffffffffffffffffffffff16815260200190815260200160002060009054906101000a900460ff16905092915050565b610414806101dc6000396000f300608060405260043610610057576000357c0100000000000000000000000000000000000000000000000000000000900463ffffffff1680637250e2241461005c5780638f0c86fa1461009f5780639bdc0801146100fa575b600080fd5b34801561006857600080fd5b5061009d600480360381019080803573ffffffffffffffffffffffffffffffffffffffff169060200190929190505050610111565b005b3480156100ab57600080fd5b506100e0600480360381019080803573ffffffffffffffffffffffffffffffffffffffff16906020019092919050505061017f565b604051808215151515815260200191505060405180910390f35b34801561010657600080fd5b5061010f61019c565b005b61011a3361017f565b151561012557600080fd5b6101398160006101f590919063ffffffff16565b8073ffffffffffffffffffffffffffffffffffffffff167fddbf200aa634dc3fb81cfd68583dd1040d1c751d335e1d86b631bde3e977fea860405160405180910390a250565b60006101958260006102a590919063ffffffff16565b9050919050565b6101b033600061033990919063ffffffff16565b3373ffffffffffffffffffffffffffffffffffffffff167f126174f6cf49c81cdb4a9214c6b8f037bef55b4ec31e4fc776cea2a1c8a88d5960405160405180910390a2565b600073ffffffffffffffffffffffffffffffffffffffff168173ffffffffffffffffffffffffffffffffffffffff161415151561023157600080fd5b61023b82826102a5565b15151561024757600080fd5b60018260000160008373ffffffffffffffffffffffffffffffffffffffff1673ffffffffffffffffffffffffffffffffffffffff16815260200190815260200160002060006101000a81548160ff0219169083151502179055505050565b60008073ffffffffffffffffffffffffffffffffffffffff168273ffffffffffffffffffffffffffffffffffffffff16141515156102e257600080fd5b8260000160008373ffffffffffffffffffffffffffffffffffffffff1673ffffffffffffffffffffffffffffffffffffffff16815260200190815260200160002060009054906101000a900460ff16905092915050565b600073ffffffffffffffffffffffffffffffffffffffff168173ffffffffffffffffffffffffffffffffffffffff161415151561037557600080fd5b61037f82826102a5565b151561038a57600080fd5b60008260000160008373ffffffffffffffffffffffffffffffffffffffff1673ffffffffffffffffffffffffffffffffffffffff16815260200190815260200160002060006101000a81548160ff02191690831515021790555050505600a165627a7a723058207f116399cb93e5ac16ed7f4fc7cc39dab41b31dc8ce6ed48cc6612e252436a7f0029",
  "source": "// SPDX-License-Identifier: MIT\r\npragma solidity >=0.4.21 <0.9.0;\r\n\r\nimport \"./Roles.sol\";\r\n\r\ncontract Distributor {\r\n\r\n  using Roles for Roles.Role; //Using Roles Library\r\n\r\n  event DistributorAdded(address indexed _account);\r\n  event DistributorRemoved(address indexed _account);\r\n\r\n  Roles.Role private distributorList;//Stores distributors roles\r\n\r\n  constructor() public {\r\n    distributorList.addRole(msg.sender);\r\n    emit DistributorAdded(msg.sender);\r\n  }\r\n\r\n  modifier onlyDistributor() {\r\n    require(isDistributor(msg.sender));\r\n    _;\r\n  }\r\n\r\n  function isDistributor(address _account) public view returns (bool) {\r\n    return distributorList.hasRole(_account);\r\n  }\r\n\r\n  function addDistributor(address _account) public onlyDistributor {\r\n    distributorList.addRole(_account);\r\n    emit DistributorAdded(_account);\r\n  }\r\n\r\n  function removeDistributor() public {\r\n    distributorList.removeRole(msg.sender);\r\n    emit DistributorRemoved(msg.sender);\r\n  }\r\n\r\n}",
  "sourcePath": "E:\\fyp-1\\contracts\\Distributor.sol",
  "compiler": {
    "name": "solc",
    "version": "0.4.24+commit.e67f0147.Emscripten.clang"
  },
  "schemaVersion": "3.4.11",
  "updatedAt": "2023-01-08T16:20:04.930Z",
  "devdoc": {
    "methods": {}
  },
  "userdoc": {
    "methods": {}
  }
}