{
  "contractName": "SupplyChain",
  "abi": [
    {
      "constant": false,
      "inputs": [],
      "name": "removeRetailer",
      "outputs": [],
      "payable": false,
      "stateMutability": "nonpayable",
      "type": "function"
    },
    {
      "constant": true,
      "inputs": [
        {
          "name": "_account",
          "type": "address"
        }
      ],
      "name": "isManufacturer",
      "outputs": [
        {
          "name": "",
          "type": "bool"
        }
      ],
      "payable": false,
      "stateMutability": "view",
      "type": "function"
    },
    {
      "constant": true,
      "inputs": [],
      "name": "distributorCount",
      "outputs": [
        {
          "name": "",
          "type": "uint256"
        }
      ],
      "payable": false,
      "stateMutability": "view",
      "type": "function"
    },
    {
      "constant": true,
      "inputs": [],
      "name": "retailerCount",
      "outputs": [
        {
          "name": "",
          "type": "uint256"
        }
      ],
      "payable": false,
      "stateMutability": "view",
      "type": "function"
    },
    {
      "constant": true,
      "inputs": [
        {
          "name": "_account",
          "type": "address"
        }
      ],
      "name": "isRetailer",
      "outputs": [
        {
          "name": "",
          "type": "bool"
        }
      ],
      "payable": false,
      "stateMutability": "view",
      "type": "function"
    },
    {
      "constant": false,
      "inputs": [
        {
          "name": "_account",
          "type": "address"
        }
      ],
      "name": "addManufacturer",
      "outputs": [],
      "payable": false,
      "stateMutability": "nonpayable",
      "type": "function"
    },
    {
      "constant": false,
      "inputs": [
        {
          "name": "_account",
          "type": "address"
        }
      ],
      "name": "addDistributor",
      "outputs": [],
      "payable": false,
      "stateMutability": "nonpayable",
      "type": "function"
    },
    {
      "constant": true,
      "inputs": [
        {
          "name": "",
          "type": "uint256"
        }
      ],
      "name": "products",
      "outputs": [
        {
          "name": "pc",
          "type": "uint256"
        },
        {
          "name": "productId",
          "type": "uint256"
        },
        {
          "name": "productPrice",
          "type": "uint256"
        },
        {
          "name": "name",
          "type": "string"
        },
        {
          "name": "manufacturingDate",
          "type": "string"
        },
        {
          "name": "manufacturerName",
          "type": "string"
        },
        {
          "name": "productStage",
          "type": "uint8"
        },
        {
          "name": "manufactuer",
          "type": "address"
        },
        {
          "name": "distributor",
          "type": "address"
        },
        {
          "name": "retailer",
          "type": "address"
        }
      ],
      "payable": false,
      "stateMutability": "view",
      "type": "function"
    },
    {
      "constant": false,
      "inputs": [
        {
          "name": "_account",
          "type": "address"
        }
      ],
      "name": "addRetailer",
      "outputs": [],
      "payable": false,
      "stateMutability": "nonpayable",
      "type": "function"
    },
    {
      "constant": true,
      "inputs": [
        {
          "name": "_account",
          "type": "address"
        }
      ],
      "name": "isDistributor",
      "outputs": [
        {
          "name": "",
          "type": "bool"
        }
      ],
      "payable": false,
      "stateMutability": "view",
      "type": "function"
    },
    {
      "constant": false,
      "inputs": [],
      "name": "removeDistributor",
      "outputs": [],
      "payable": false,
      "stateMutability": "nonpayable",
      "type": "function"
    },
    {
      "constant": true,
      "inputs": [],
      "name": "manufacturerCount",
      "outputs": [
        {
          "name": "",
          "type": "uint256"
        }
      ],
      "payable": false,
      "stateMutability": "view",
      "type": "function"
    },
    {
      "constant": true,
      "inputs": [],
      "name": "productCount",
      "outputs": [
        {
          "name": "",
          "type": "uint256"
        }
      ],
      "payable": false,
      "stateMutability": "view",
      "type": "function"
    },
    {
      "constant": false,
      "inputs": [],
      "name": "removeManufacturer",
      "outputs": [],
      "payable": false,
      "stateMutability": "nonpayable",
      "type": "function"
    },
    {
      "inputs": [],
      "payable": false,
      "stateMutability": "nonpayable",
      "type": "constructor"
    },
    {
      "anonymous": false,
      "inputs": [
        {
          "indexed": false,
          "name": "id",
          "type": "uint256"
        }
      ],
      "name": "produced",
      "type": "event"
    },
    {
      "anonymous": false,
      "inputs": [
        {
          "indexed": false,
          "name": "id",
          "type": "uint256"
        }
      ],
      "name": "packed",
      "type": "event"
    },
    {
      "anonymous": false,
      "inputs": [
        {
          "indexed": false,
          "name": "id",
          "type": "uint256"
        }
      ],
      "name": "sold",
      "type": "event"
    },
    {
      "anonymous": false,
      "inputs": [
        {
          "indexed": false,
          "name": "id",
          "type": "uint256"
        }
      ],
      "name": "shipped",
      "type": "event"
    },
    {
      "anonymous": false,
      "inputs": [
        {
          "indexed": false,
          "name": "id",
          "type": "uint256"
        }
      ],
      "name": "received",
      "type": "event"
    },
    {
      "anonymous": false,
      "inputs": [
        {
          "indexed": true,
          "name": "_account",
          "type": "address"
        }
      ],
      "name": "RetailerAdded",
      "type": "event"
    },
    {
      "anonymous": false,
      "inputs": [
        {
          "indexed": true,
          "name": "_account",
          "type": "address"
        }
      ],
      "name": "RetailerRemoved",
      "type": "event"
    },
    {
      "anonymous": false,
      "inputs": [
        {
          "indexed": true,
          "name": "_account",
          "type": "address"
        }
      ],
      "name": "DistributorAdded",
      "type": "event"
    },
    {
      "anonymous": false,
      "inputs": [
        {
          "indexed": true,
          "name": "_account",
          "type": "address"
        }
      ],
      "name": "DistributorRemoved",
      "type": "event"
    },
    {
      "anonymous": false,
      "inputs": [
        {
          "indexed": true,
          "name": "_account",
          "type": "address"
        }
      ],
      "name": "ManufacturerAdded",
      "type": "event"
    },
    {
      "anonymous": false,
      "inputs": [
        {
          "indexed": true,
          "name": "_account",
          "type": "address"
        }
      ],
      "name": "ManufacturerRemoved",
      "type": "event"
    },
    {
      "constant": true,
      "inputs": [
        {
          "name": "_pc",
          "type": "uint256"
        }
      ],
      "name": "getStatus",
      "outputs": [
        {
          "name": "",
          "type": "uint8"
        }
      ],
      "payable": false,
      "stateMutability": "view",
      "type": "function"
    },
    {
      "constant": false,
      "inputs": [
        {
          "name": "_id",
          "type": "uint256"
        },
        {
          "name": "_name",
          "type": "string"
        },
        {
          "name": "_date",
          "type": "string"
        },
        {
          "name": "_manufacturerName",
          "type": "string"
        }
      ],
      "name": "addProduct",
      "outputs": [],
      "payable": true,
      "stateMutability": "payable",
      "type": "function"
    },
    {
      "constant": false,
      "inputs": [
        {
          "name": "_pc",
          "type": "uint256"
        }
      ],
      "name": "packProduct",
      "outputs": [],
      "payable": false,
      "stateMutability": "nonpayable",
      "type": "function"
    },
    {
      "constant": false,
      "inputs": [
        {
          "name": "_pc",
          "type": "uint256"
        }
      ],
      "name": "sellProduct",
      "outputs": [],
      "payable": true,
      "stateMutability": "payable",
      "type": "function"
    },
    {
      "constant": false,
      "inputs": [
        {
          "name": "_pc",
          "type": "uint256"
        },
        {
          "name": "_price",
          "type": "uint256"
        }
      ],
      "name": "shipProduct",
      "outputs": [],
      "payable": false,
      "stateMutability": "nonpayable",
      "type": "function"
    },
    {
      "constant": false,
      "inputs": [
        {
          "name": "_pc",
          "type": "uint256"
        }
      ],
      "name": "receivedProduct",
      "outputs": [],
      "payable": true,
      "stateMutability": "payable",
      "type": "function"
    }
  ],
  "bytecode": "0x60806040523480156200001157600080fd5b5062000036336000620001b66401000000000262001a58179091906401000000009004565b3373ffffffffffffffffffffffffffffffffffffffff167f561138658ca49a8540dc70dcfe64c9026c1c5b9344642242dd6562970f9c127860405160405180910390a26200009d336001620001b66401000000000262001a58179091906401000000009004565b3373ffffffffffffffffffffffffffffffffffffffff167fddbf200aa634dc3fb81cfd68583dd1040d1c751d335e1d86b631bde3e977fea860405160405180910390a262000104336002620001b66401000000000262001a58179091906401000000009004565b3373ffffffffffffffffffffffffffffffffffffffff167f71ae26cad02663e3d92efd6ec56031a80d74a20c0ab4183faa8bf262261c9baa60405160405180910390a233600360006101000a81548173ffffffffffffffffffffffffffffffffffffffff021916908373ffffffffffffffffffffffffffffffffffffffff160217905550600160088190555060006004819055506000600581905550600060068190555060006007819055506200030e565b600073ffffffffffffffffffffffffffffffffffffffff168173ffffffffffffffffffffffffffffffffffffffff1614151515620001f357600080fd5b6200020e828262000279640100000000026401000000009004565b1515156200021b57600080fd5b60018260000160008373ffffffffffffffffffffffffffffffffffffffff1673ffffffffffffffffffffffffffffffffffffffff16815260200190815260200160002060006101000a81548160ff0219169083151502179055505050565b60008073ffffffffffffffffffffffffffffffffffffffff168273ffffffffffffffffffffffffffffffffffffffff1614151515620002b757600080fd5b8260000160008373ffffffffffffffffffffffffffffffffffffffff1673ffffffffffffffffffffffffffffffffffffffff16815260200190815260200160002060009054906101000a900460ff16905092915050565b611bd9806200031e6000396000f300608060405260043610610112576000357c0100000000000000000000000000000000000000000000000000000000900463ffffffff168063022ec68814610117578063103748e11461014e57806316479b851461016e57806317d4a491146101855780633ac140e8146101e057806347c16a7f1461020b578063492deb15146102365780635c622a0e146102565780635da09b88146102a55780635f8a5afa146103005780637250e224146103435780637acc0b20146103865780638ec4f505146105c75780638f0c86fa1461060a5780639bdc080114610665578063b6a87e101461067c578063be0c6f1c146106a9578063c1393d27146106d4578063e0f6ef87146107c6578063f89620e1146107f1575b600080fd5b34801561012357600080fd5b5061014c6004803603810190808035906020019092919080359060200190929190505050610808565b005b61016c600480360381019080803590602001909291905050506109b2565b005b34801561017a57600080fd5b50610183610ccf565b005b34801561019157600080fd5b506101c6600480360381019080803573ffffffffffffffffffffffffffffffffffffffff169060200190929190505050610d28565b604051808215151515815260200191505060405180910390f35b3480156101ec57600080fd5b506101f5610d45565b6040518082815260200191505060405180910390f35b34801561021757600080fd5b50610220610d4b565b6040518082815260200191505060405180910390f35b61025460048036038101908080359060200190929190505050610d51565b005b34801561026257600080fd5b506102816004803603810190808035906020019092919050505061106e565b6040518082600481111561029157fe5b60ff16815260200191505060405180910390f35b3480156102b157600080fd5b506102e6600480360381019080803573ffffffffffffffffffffffffffffffffffffffff16906020019092919050505061109b565b604051808215151515815260200191505060405180910390f35b34801561030c57600080fd5b50610341600480360381019080803573ffffffffffffffffffffffffffffffffffffffff1690602001909291905050506110b8565b005b34801561034f57600080fd5b50610384600480360381019080803573ffffffffffffffffffffffffffffffffffffffff169060200190929190505050611112565b005b34801561039257600080fd5b506103b160048036038101908080359060200190929190505050611180565b604051808b81526020018a81526020018981526020018060200180602001806020018860048111156103df57fe5b60ff1681526020018773ffffffffffffffffffffffffffffffffffffffff1673ffffffffffffffffffffffffffffffffffffffff1681526020018673ffffffffffffffffffffffffffffffffffffffff1673ffffffffffffffffffffffffffffffffffffffff1681526020018573ffffffffffffffffffffffffffffffffffffffff1673ffffffffffffffffffffffffffffffffffffffff16815260200184810384528b818151815260200191508051906020019080838360005b838110156104b557808201518184015260208101905061049a565b50505050905090810190601f1680156104e25780820380516001836020036101000a031916815260200191505b5084810383528a818151815260200191508051906020019080838360005b8381101561051b578082015181840152602081019050610500565b50505050905090810190601f1680156105485780820380516001836020036101000a031916815260200191505b50848103825289818151815260200191508051906020019080838360005b83811015610581578082015181840152602081019050610566565b50505050905090810190601f1680156105ae5780820380516001836020036101000a031916815260200191505b509d505050505050505050505050505060405180910390f35b3480156105d357600080fd5b50610608600480360381019080803573ffffffffffffffffffffffffffffffffffffffff169060200190929190505050611409565b005b34801561061657600080fd5b5061064b600480360381019080803573ffffffffffffffffffffffffffffffffffffffff169060200190929190505050611477565b604051808215151515815260200191505060405180910390f35b34801561067157600080fd5b5061067a611494565b005b34801561068857600080fd5b506106a7600480360381019080803590602001909291905050506114ed565b005b3480156106b557600080fd5b506106be611626565b6040518082815260200191505060405180910390f35b6107c460048036038101908080359060200190929190803590602001908201803590602001908080601f0160208091040260200160405190810160405280939291908181526020018383808284378201915050505050509192919290803590602001908201803590602001908080601f0160208091040260200160405190810160405280939291908181526020018383808284378201915050505050509192919290803590602001908201803590602001908080601f016020809104026020016040519081016040528093929190818152602001838380828437820191505050505050919291929050505061162c565b005b3480156107d257600080fd5b506107db6118b6565b6040518082815260200191505060405180910390f35b3480156107fd57600080fd5b506108066118bc565b005b816002600481111561081657fe5b600a600083815260200190815260200160002060060160009054906101000a900460ff16600481111561084557fe5b1415156108ba576040517f08c379a00000000000000000000000000000000000000000000000000000000081526004018080602001828103825260148152602001807f4974656d206973206e6f742079657420736f6c6400000000000000000000000081525060200191505060405180910390fd5b6108c333611477565b15156108ce57600080fd5b6003600a600085815260200190815260200160002060060160006101000a81548160ff0219169083600481111561090157fe5b021790555081600a60008581526020019081526020016000206002018190555033600a600085815260200190815260200160002060070160006101000a81548173ffffffffffffffffffffffffffffffffffffffff021916908373ffffffffffffffffffffffffffffffffffffffff1602179055507fae3fc7024aaab40b80265cc32a3c8894ce4dafdf54b91a78a2aa49f8b0bc521a836040518082815260200191505060405180910390a1505050565b80600360048111156109c057fe5b600a600083815260200190815260200160002060060160009054906101000a900460ff1660048111156109ef57fe5b141515610a64576040517f08c379a00000000000000000000000000000000000000000000000000000000081526004018080602001828103825260178152602001807f4974656d206973206e6f7420796574207368697070656400000000000000000081525060200191505060405180910390fd5b610a6d3361109b565b1515610a7857600080fd5b600a600083815260200190815260200160002060020154803410151515610b07576040517f08c379a000000000000000000000000000000000000000000000000000000000815260040180806020018281038252601b8152602001807f5061696420616d6f756e7420697320696e73756666696369656e74000000000081525060200191505060405180910390fd5b8260008033600a600088815260200190815260200160002060080160006101000a81548173ffffffffffffffffffffffffffffffffffffffff021916908373ffffffffffffffffffffffffffffffffffffffff160217905550600a600087815260200190815260200160002060070160009054906101000a900473ffffffffffffffffffffffffffffffffffffffff1673ffffffffffffffffffffffffffffffffffffffff166108fc600a6000898152602001908152602001600020600201549081150290604051600060405180830381858888f19350505050158015610bf2573d6000803e3d6000fd5b506004600a600088815260200190815260200160002060060160006101000a81548160ff02191690836004811115610c2657fe5b02179055507fe66f0a779f42a53dbb677b5713ab20003216db33f14e5e97ae193ea7c04432c0866040518082815260200191505060405180910390a1600a600084815260200190815260200160002060020154915081340390503373ffffffffffffffffffffffffffffffffffffffff166108fc829081150290604051600060405180830381858888f19350505050158015610cc6573d6000803e3d6000fd5b50505050505050565b610ce333600261191590919063ffffffff16565b3373ffffffffffffffffffffffffffffffffffffffff167fdb7176e79cffef81cb01767dd0447a0b24bb72ca9778d4b245581086b2a7e6db60405160405180910390a2565b6000610d3e8260006119c490919063ffffffff16565b9050919050565b60065481565b60075481565b8060016004811115610d5f57fe5b600a600083815260200190815260200160002060060160009054906101000a900460ff166004811115610d8e57fe5b141515610e03576040517f08c379a00000000000000000000000000000000000000000000000000000000081526004018080602001828103825260168152602001807f4974656d206973206e6f7420796574207061636b65640000000000000000000081525060200191505060405180910390fd5b610e0c33611477565b1515610e1757600080fd5b600a600083815260200190815260200160002060020154803410151515610ea6576040517f08c379a000000000000000000000000000000000000000000000000000000000815260040180806020018281038252601b8152602001807f5061696420616d6f756e7420697320696e73756666696369656e74000000000081525060200191505060405180910390fd5b8260008033600a600088815260200190815260200160002060070160006101000a81548173ffffffffffffffffffffffffffffffffffffffff021916908373ffffffffffffffffffffffffffffffffffffffff160217905550600a600087815260200190815260200160002060060160019054906101000a900473ffffffffffffffffffffffffffffffffffffffff1673ffffffffffffffffffffffffffffffffffffffff166108fc600a6000898152602001908152602001600020600201549081150290604051600060405180830381858888f19350505050158015610f91573d6000803e3d6000fd5b506002600a600088815260200190815260200160002060060160006101000a81548160ff02191690836004811115610fc557fe5b02179055507f9c03facbfbb3359f78225339a47f6cdfd0c5dd30af8ac94a64e0fd3191bc8adf866040518082815260200191505060405180910390a1600a600084815260200190815260200160002060020154915081340390503373ffffffffffffffffffffffffffffffffffffffff166108fc829081150290604051600060405180830381858888f19350505050158015611065573d6000803e3d6000fd5b50505050505050565b6000600a600083815260200190815260200160002060060160009054906101000a900460ff169050919050565b60006110b18260026119c490919063ffffffff16565b9050919050565b6110cc816000611a5890919063ffffffff16565b8073ffffffffffffffffffffffffffffffffffffffff167f561138658ca49a8540dc70dcfe64c9026c1c5b9344642242dd6562970f9c127860405160405180910390a250565b61111b33611477565b151561112657600080fd5b61113a816001611a5890919063ffffffff16565b8073ffffffffffffffffffffffffffffffffffffffff167fddbf200aa634dc3fb81cfd68583dd1040d1c751d335e1d86b631bde3e977fea860405160405180910390a250565b600a602052806000526040600020600091509050806000015490806001015490806002015490806003018054600181600116156101000203166002900480601f01602080910402602001604051908101604052809291908181526020018280546001816001161561010002031660029004801561123e5780601f106112135761010080835404028352916020019161123e565b820191906000526020600020905b81548152906001019060200180831161122157829003601f168201915b505050505090806004018054600181600116156101000203166002900480601f0160208091040260200160405190810160405280929190818152602001828054600181600116156101000203166002900480156112dc5780601f106112b1576101008083540402835291602001916112dc565b820191906000526020600020905b8154815290600101906020018083116112bf57829003601f168201915b505050505090806005018054600181600116156101000203166002900480601f01602080910402602001604051908101604052809291908181526020018280546001816001161561010002031660029004801561137a5780601f1061134f5761010080835404028352916020019161137a565b820191906000526020600020905b81548152906001019060200180831161135d57829003601f168201915b5050505050908060060160009054906101000a900460ff16908060060160019054906101000a900473ffffffffffffffffffffffffffffffffffffffff16908060070160009054906101000a900473ffffffffffffffffffffffffffffffffffffffff16908060080160009054906101000a900473ffffffffffffffffffffffffffffffffffffffff1690508a565b6114123361109b565b151561141d57600080fd5b611431816002611a5890919063ffffffff16565b8073ffffffffffffffffffffffffffffffffffffffff167f71ae26cad02663e3d92efd6ec56031a80d74a20c0ab4183faa8bf262261c9baa60405160405180910390a250565b600061148d8260016119c490919063ffffffff16565b9050919050565b6114a833600161191590919063ffffffff16565b3373ffffffffffffffffffffffffffffffffffffffff167f126174f6cf49c81cdb4a9214c6b8f037bef55b4ec31e4fc776cea2a1c8a88d5960405160405180910390a2565b80600060048111156114fb57fe5b600a600083815260200190815260200160002060060160009054906101000a900460ff16600481111561152a57fe5b14151561159f576040517f08c379a00000000000000000000000000000000000000000000000000000000081526004018080602001828103825260188152602001807f4974656d206973206e6f74207965742070726f6475636564000000000000000081525060200191505060405180910390fd5b6115a833610d28565b15156115b357600080fd5b6001600a600084815260200190815260200160002060060160006101000a81548160ff021916908360048111156115e657fe5b02179055507f977eca9ca36fa23a0b799e12df1355eb88fb1900d76f0ca60e9f3026c809b644826040518082815260200191505060405180910390a15050565b60055481565b61163533610d28565b151561164057600080fd5b610140604051908101604052806008548152602001858152602001600581526020018481526020018381526020018281526020016000600481111561168157fe5b81526020013373ffffffffffffffffffffffffffffffffffffffff168152602001600073ffffffffffffffffffffffffffffffffffffffff168152602001600073ffffffffffffffffffffffffffffffffffffffff16815250600a600060085481526020019081526020016000206000820151816000015560208201518160010155604082015181600201556060820151816003019080519060200190611729929190611b08565b506080820151816004019080519060200190611746929190611b08565b5060a0820151816005019080519060200190611763929190611b08565b5060c08201518160060160006101000a81548160ff0219169083600481111561178857fe5b021790555060e08201518160060160016101000a81548173ffffffffffffffffffffffffffffffffffffffff021916908373ffffffffffffffffffffffffffffffffffffffff1602179055506101008201518160070160006101000a81548173ffffffffffffffffffffffffffffffffffffffff021916908373ffffffffffffffffffffffffffffffffffffffff1602179055506101208201518160080160006101000a81548173ffffffffffffffffffffffffffffffffffffffff021916908373ffffffffffffffffffffffffffffffffffffffff1602179055509050506008600081548092919060010191905055507f3bad00b74ec692016f8280d4c64d5a23ba2832749ce9f6307747ef3b935ecd91846040518082815260200191505060405180910390a150505050565b60045481565b6118d033600061191590919063ffffffff16565b3373ffffffffffffffffffffffffffffffffffffffff167f2fed5abf6a80d6dfe30b4895481b2fc5d7dce5f8f7b931832f4a2947d5040c7f60405160405180910390a2565b600073ffffffffffffffffffffffffffffffffffffffff168173ffffffffffffffffffffffffffffffffffffffff161415151561195157600080fd5b61195b82826119c4565b151561196657600080fd5b60008260000160008373ffffffffffffffffffffffffffffffffffffffff1673ffffffffffffffffffffffffffffffffffffffff16815260200190815260200160002060006101000a81548160ff0219169083151502179055505050565b60008073ffffffffffffffffffffffffffffffffffffffff168273ffffffffffffffffffffffffffffffffffffffff1614151515611a0157600080fd5b8260000160008373ffffffffffffffffffffffffffffffffffffffff1673ffffffffffffffffffffffffffffffffffffffff16815260200190815260200160002060009054906101000a900460ff16905092915050565b600073ffffffffffffffffffffffffffffffffffffffff168173ffffffffffffffffffffffffffffffffffffffff1614151515611a9457600080fd5b611a9e82826119c4565b151515611aaa57600080fd5b60018260000160008373ffffffffffffffffffffffffffffffffffffffff1673ffffffffffffffffffffffffffffffffffffffff16815260200190815260200160002060006101000a81548160ff0219169083151502179055505050565b828054600181600116156101000203166002900490600052602060002090601f016020900481019282601f10611b4957805160ff1916838001178555611b77565b82800160010185558215611b77579182015b82811115611b76578251825591602001919060010190611b5b565b5b509050611b849190611b88565b5090565b611baa91905b80821115611ba6576000816000905550600101611b8e565b5090565b905600a165627a7a723058204e85e83807782805d185e559b66347d8839b721c0e505095c15051587ac2e95d0029",
  "source": "// SPDX-License-Identifier: MIT\r\npragma solidity >=0.4.21 <0.9.0;\r\n\r\nimport \"./Manufacturer.sol\";\r\nimport \"./Distributor.sol\";\r\nimport \"./Retailer.sol\";\r\n\r\ncontract SupplyChain is Manufacturer,Distributor,Retailer{\r\n\r\n    address owner;\r\n    uint public productCount;\r\n    uint public manufacturerCount;\r\n    uint public distributorCount;\r\n    uint public retailerCount;\r\n    uint productCode;\r\n    mapping(address => uint) balance;\r\n\r\n    enum stage {\r\n        produced,\r\n        packed,\r\n        sold,\r\n        shipped,\r\n        received\r\n    }\r\n\r\n    stage constant defaultStage=stage.produced;\r\n\r\n    event produced(uint id);\r\n    event packed(uint id);\r\n    event sold(uint id);\r\n    event shipped(uint id);\r\n    event received(uint id);\r\n\r\n    constructor() public{\r\n        owner=msg.sender;\r\n        productCode=1;\r\n        productCount=0;\r\n        manufacturerCount=0;\r\n        distributorCount=0;\r\n        retailerCount=0;\r\n    }\r\n\r\n    struct Product{\r\n        uint pc;\r\n        uint productId;    \r\n        uint productPrice;\r\n        string name;\r\n        string manufacturingDate;\r\n        string manufacturerName;\r\n        stage productStage;    \r\n        address manufactuer;\r\n        address distributor;\r\n        address retailer;\r\n    }\r\n\r\n    mapping(uint => Product) public products;\r\n    \r\n    modifier OnlyOwner() {\r\n        require(msg.sender==owner,\"Only Owner is allowed!\");\r\n        _;\r\n    }\r\n\r\n    modifier isAmountEnough(uint price) {\r\n        require(msg.value >= price, \"Paid amount is insufficient\");\r\n        _;\r\n    }\r\n\r\n    modifier transferAmount(uint id){\r\n        _;\r\n        uint price = products[id].productPrice;\r\n        uint returnAmount = msg.value - price;\r\n        msg.sender.transfer(returnAmount);\r\n    }\r\n\r\n    modifier Produced(uint id){\r\n        require(products[id].productStage == stage.produced, \"Item is not yet produced\");\r\n        _;\r\n    }\r\n\r\n    modifier Packed(uint id){\r\n        require(products[id].productStage == stage.packed, \"Item is not yet packed\");\r\n        _;\r\n    }\r\n\r\n    modifier Sold(uint id){\r\n        require(products[id].productStage == stage.sold, \"Item is not yet sold\");\r\n        _;\r\n    }\r\n\r\n    modifier Shipped(uint id){\r\n        require(products[id].productStage == stage.shipped, \"Item is not yet shipped\");\r\n        _;\r\n    }\r\n\r\n    modifier Received(uint id){\r\n        require(products[id].productStage == stage.received, \"Item is not yet received\");\r\n        _;\r\n    }\r\n\r\n    function getStatus(uint _pc) public view returns(stage){\r\n        return products[_pc].productStage;\r\n    }\r\n\r\n    function addProduct(uint _id,string memory _name,string memory _date,string memory _manufacturerName) public payable onlyManufacturer(){\r\n        products[productCode]= Product(productCode,_id,5,_name,_date,_manufacturerName,stage.produced,msg.sender,address(0),address(0)); \r\n        productCode++;\r\n        emit produced(_id);\r\n    }\r\n\r\n    function packProduct(uint _pc) public Produced(_pc) onlyManufacturer(){\r\n        products[_pc].productStage=stage.packed;\r\n        emit packed(_pc);\r\n    }\r\n\r\n    function sellProduct(uint _pc) public payable Packed(_pc) onlyDistributor() isAmountEnough(products[_pc].productPrice) transferAmount(_pc){\r\n        products[_pc].distributor = msg.sender;\r\n        products[_pc].manufactuer.transfer(products[_pc].productPrice);\r\n        products[_pc].productStage = stage.sold;\r\n        emit sold(_pc);\r\n    }\r\n\r\n    function shipProduct(uint _pc,uint _price) public Sold(_pc) onlyDistributor(){\r\n        products[_pc].productStage=stage.shipped;\r\n        products[_pc].productPrice=_price;\r\n        products[_pc].distributor=msg.sender;\r\n        emit shipped(_pc);\r\n    }\r\n\r\n    function receivedProduct(uint _pc) public payable Shipped(_pc) onlyRetailer() isAmountEnough(products[_pc].productPrice) transferAmount(_pc){\r\n        products[_pc].retailer = msg.sender;\r\n        products[_pc].distributor.transfer(products[_pc].productPrice);\r\n        products[_pc].productStage = stage.received;\r\n        emit received(_pc);\r\n    }\r\n\r\n}\r\n\r\n",
  "sourcePath": "E:\\fyp-1\\contracts\\SupplyChain.sol",
  "compiler": {
    "name": "solc",
    "version": "0.4.24+commit.e67f0147.Emscripten.clang"
  },
  "schemaVersion": "3.4.11",
  "updatedAt": "2023-01-08T16:20:26.938Z",
  "networkType": "ethereum",
  "devdoc": {
    "methods": {}
  },
  "userdoc": {
    "methods": {}
  }
}